:020000040800F2
:100000000020001025CD020825850208C9530008EC
:10001000218502081D8502081985020800000000DC
:10002000000000000000000000000000158502082C
:1000300011850208000000000D850208D96600083D
:100040008DCD02088DCD02088DCD02088DCD020820
:100050008DCD02088DCD0208C5270008F1280008C3
:10006000B5280008792800083D280008B13E00089E
:10007000A13E0008913E0008813E0008713E000844
:100080005D3E0008493E00088DCD02088DCD020876
:1000900081D501088DCD02088DCD02080128000808
:1000A000C95F0008196000088DCD020829600008AA
:1000B00009600008F95F00088DCD02088DCD0208A7
:1000C0008DCD02088DCD02088DCD02088DCD0208A0
:1000D0008DCD02088DCD02088DCD02080D67000878
:1000E000892700088DCD020871D501088DCD020841
:1000F000D95F00088DCD0208E95F00088DCD0208A8
:100100000000000000000000000000008DCD02088B
:100110008DCD02088DCD0208891A01086D1A0108DB
:10012000353E0008213E00080D3E0008F93D00085C
:10013000E53D00088DCD0208000000000000000031
:100140008DCD02088DCD02088DCD02080000000083
:10015000000000000000000000000000000000009F
:1001600000000000000000008DCD02088DCD0208C7
:100170008DCD02080000000000000000000000001B
:08018000000000008DCD020813
:100188002B2303732A238370002383757047036826
:100198002DE9F041DF691FB13B46BDE8F041184742
:1001A800002A164611DD04460D460E4400E0236879
:1001B8009B68204698470028F9D0236815F8011B4A
:1001C8001B6820469847AE42F1D1BDE8F081002374
:1001D8003F22027043708370C37070471523037009
:1001E8001623C370172383712D2343702E230371A5
:1001F8002F23C3717047002870B51EDB09280446F9
:1002080020DD012303EB83035B00B0FBF3F2092A33
:10021800F8D87BB10D4EB4FBF3F00928CCBF5722B8
:100228003022A6FB03E5024403FB1044EB0801F867
:10023800012BF0D100230B7070BD2D230B704042B1
:100248000131DBE7303001F8010BF3E7CDCCCCCC42
:10025800884230B44FF001042ED301FB04F4B0FB04
:10026800F4F58D42F9D284B1AAB901E0B0FBF4F5F6
:10027800092DCCBF572230222A4404FB150003F86D
:10028800012BB4FBF1F4002CF0D100221A7030BC21
:100298007047B0FBF4F5092DCCBF372230222A4431
:1002A80004FB150003F8012BB4FBF1F4002CF0D18A
:1002B80000221A7030BC70470546002AEBD1D7E7F8
:1002C80003685A1C0260197070472DE9F047089CB2
:1002D8002578002B804689460CBF4FF0200A4FF046
:1002E800300A661C35B3002A29DD334601E0024690
:1002F80098B113F8011B501E0029F8D1971E60B160
:100308003D46013D51464046C8476B1C002BF8DC72
:10031800257827EAE770013055B1041B2946404685
:10032800C847301916F8015B002DF7D1BDE8F087F2
:10033800BDE8F087002A04DC2846BDE8F0870020E5
:10034800EBE7571EDCE783684268D0ED037A00EBE1
:1003580083010133934281ED040A836004BF0023C3
:10036800836000EB830393ED047A036870EE277AC9
:100378009A42C0ED037A77EEC77AC0ED037A0CDAB9
:10038800013307EE103AF8EEC76AB7EE007A87EE47
:10039800A60A036030EE070A704707EE102AB8EE87
:1003A800C77A87EE870A704790ED057A90ED004A84
:1003B800D0ED066AD0ED014AD0ED047A90ED035AEB
:1003C800D0ED025AA4EE007AB0EE406AB0EE470AC9
:1003D800B0EE667AA6EE247A67EEC07AA0EE457A89
:1003E800E6EE257A80ED057AC0ED067A7047D0ED05
:1003F800057A90ED013AD0ED003AD0ED064A90ED3D
:10040800024A90ED077A90ED035A90ED086AD0ED14
:10041800045AC0ED067AF0EE406A27EE830AC0ED72
:10042800056AA3EEA60A80ED087AA4EE240AA5EED2
:10043800470AA5EEC60A80ED070A7047D0ED007A94
:1004480090ED017A30EE670AE7EE007AB0EE670ABF
:10045800C0ED007A704770470A44914214D030B416
:100468000139551E41F2210211F8014F082380EA93
:10047800042004044CBF82EA40004000013B80B2E3
:10048800F7D18D42F0D130BC7047024B00221A7070
:100498005A7070477C230020044A13783F2B03D8F6
:1004A800D118013308711370704700BF7C230020F6
:1004B800F0B58F7A8D79CC7ACE790A7C4B7C9FED1A
:1004C8005C4A4FEA072C0CF4706C45EA0C053F01B6
:1004D80007F4706E03EE905A4FEA042C0D7A24014B
:1004E80004F470670CF4706C46EA0E0404EE904A4B
:1004F80045EA0C0405EE104A4C7A16023C431201F8
:1005080002F4706505EE904A4A7B0C7B06F470662F
:1005180034432A431D021B0106EE104A06EE902AB8
:1005280003F470648A7BCB7B05F470652A4323430C
:1005380007EE102A07EE903AB8EEC55AF8EEE33AFD
:10054800F8EEE55A25EE045AF8EEE44AB8EEC66A23
:10055800F8EEE66AB8EEC77AF8EEE77A65EE845AFE
:1005680063EE843A64EE844A26EE046A66EE846A90
:1005780027EE047A67EE847ABCEEC55ABCEEE34AED
:10058800FCEEE55A87B015EE102AFCEEE44ABCEE04
:10059800C66AFCEEE66ABCEEC77AFCEEE77A15EEB0
:1005A800907A8DED014ABDF80410ADF80C2017EED5
:1005B800104A17EE902A14EE90EA16EE106A16EE1C
:1005C800905AADF80E700DF10A07ADF81440ADF869
:1005D8001620ADF808100B46ADF80AE0ADF810602B
:1005E800ADF812503A4606AC01E032F8023BA3F5EA
:1005F8004873B3F5AF6F0CD8A242F6D1831E0E3004
:1006080001E037F8021B23F8021F9842F9D107B01E
:10061800F0BD084B1B78162BF9D1074A0749B2F8E9
:10062800443001339BB2A2F844300B8007B0F0BDD0
:10063800ABAA2A3F385600207C2300203C560020D5
:100648002DE9F04FDFF81CB2DFF81CE2BBF8002000
:10065800DEF84860BBF90430BBF90250BBF90A80E8
:10066800C2EB261404FB04F424135200C2EBE60286
:1006780003FB04F305FB02F29B1303EBE223B3F540
:10068800FA364FEAE37589B045F1FF373246A6FBE3
:100698000645CDE9024502FB07F205EB4202CDE92A
:1006A8000467029EBBF90840039208FB02FC4FEA6C
:1006B800E87906FB09CC3A46A8FB0689049ECBF8E4
:1006C8001830E51704FB02F206FB0522A4FB0667B7
:1006D800E14417444FEA182242EA096200924FEABD
:1006E800292201923D03DDE90078340345EA1655D5
:1006F8003F19BBF80660069048EB05083C1C48F516
:10070800004503EB8302A4FB068906FB05998032AA
:1007180013124FEA69064FEAE977079356EA070387
:100728008A4600F09280DDE90489BBF90E20DEF8E4
:100738004C40BBF910004946C4F5801ED317DDE9CB
:10074800024502FB01F108FB0311A2FB08230B443D
:100758004FEA43492B46C11700FB03F304FB01335F
:10076800A0FB0401BBF90C401944E3000193734654
:10077800DC170023009349EAD2394FEA4248DDE901
:10078800002310EB080041EB0901E50712184FEAB6
:10079800CE744B4145EA5E05A41A65EB03052219A0
:1007A80045EB050312196B4199019001801841EA44
:1007B800926159418B00820043EA9073101943EB10
:1007C80005018B00820043EA907310460019194610
:1007D80032463B4669412CF0CDF8BBF916204C1344
:1007E800450B45EAC14502FB04F6D31705FB036632
:1007F800A2FB05233344BBF9146002FB04F405FB98
:10080800034406FB01FEA2FB0523F717234400FB64
:1008180007EE540EA6FB0067774444EAC3144FEA78
:10082800D64800194FEA636548EA473869414FEAF4
:10083800E74918EB0008BBF9124049EB01094FEAF8
:10084800182646EA096620013618069B0BB1360AB7
:100858001E60BAF1000F02D0079BCAF8003009B039
:10086800BDE8F08FD05D00207C23002070477047E2
:1008780050F8043C012280F84520103803B118478D
:10088800704790F8203033B1012B03D14FF4006347
:100898008382704770474FF480638382704770B5D6
:1008A800044682B01430E56D06236A464321A84702
:1008B800B0B19DF804009DF800609DF801109DF806
:1008C80002509DF803209DF8053041EA062143EACD
:1008D800002342EA0522A187E287A4F840300120DC
:1008E80002B070BD70B5044682B00830656A062350
:1008F8006A463B21A847A8B19DF804009DF800600E
:100908009DF801109DF802509DF803209DF80530D0
:1009180041EA062143EA002342EA0522E1822283D2
:100928006383012002B070BD70B40468037B226841
:10093800022101FA03F31A4213D042690A495820E6
:1009480000FB02124FF6FE7650685289C5680068AF
:10095800296831402960C168D24392B20A40C26016
:10096800636070BC704700BF584C002030B4094B1E
:100978001C7864B1084B002503EBC4041A689988F5
:100988005562D06808330143A342D160F6D130BC28
:10099800704700BF184F00201C4F002010B4026899
:1009A800047B11680223A340194209D00649406814
:1009B80000240C7001684FF6FE74214001605360FA
:1009C8005DF8044B704700BF095F0020F0B4334C5A
:1009D80000EB800004EB80046468002C5BD0304E90
:1009E80049004FF42040CDB23065A169090444D4D0
:1009F80060682C4F45F08071384041F490310143D4
:100A08004FF420406160306503E0411E002838D073
:100A18000846A1698F07F8D54FF42040A2623065D7
:100A280002E0421E68B31046A2691106F9D5626851
:100A38001C4945F0007545F480350A4015434FF4CC
:100A480020406560306502E0421ED0B11046A269C0
:100A58009207F9D5A362A3694FF420409B0630653D
:100A680005D4431E68B11846A3699B06F9D520230F
:100A78003065E3610120F0BC7047411E08B10846AB
:100A8800B3E7094A138801339BB24FF0FF31316550
:100A98001380F0BC70472046F0BC7047E43000205B
:100AA8007C230020009800FC984100201346002079
:100AB8000A4668218AE730B50446C06C617103684C
:100AC800A26823F00103036087B0A379009213F0B2
:100AD80004023DD04FF4805213F00203019244D136
:100AE80002934FF480630022039311F001030592EF
:100AF80037D1049308238D07694648BF049328F02B
:100B080021F96079E36CA17900F00202002A15BF8F
:100B18004FF440324FF480324FF40034002410F088
:100B2800010F586808BF2246CC074CBF024320EA91
:100B380002025A609A6809074CBF42F0080222F084
:100B480008029A601A6842F001021A6007B030BDC4
:100B580013F0020301920BD04FF40055134602958F
:100B6800C1E7042304930C23C5E74FF40053B7E708
:100B78000293B8E710B50446C06CA160036823F07F
:100B880001030360A37986B013F00402009141D0F9
:100B98004FF4805213F00203019244D102934FF4B0
:100BA800806362790393D1074FF0000304930593A0
:100BB80045BF0423049308230C236946920748BFC2
:100BC800049328F0BFF86079E36CA17900F0020281
:100BD800002A15BF4FF440324FF480324FF40034EE
:100BE800002410F0010F586808BF2246CC074CBFFC
:100BF800024320EA02025A609A6809074CBF42F091
:100C0800080222F008029A601A6842F001021A608B
:100C180006B010BD13F00203019207D04FF4005143
:100C280013460291BDE74FF40053B7E70293B8E7C4
:100C38002622192102702722002382704170012286
:100C48001A2102718371C1704271C37170472DE915
:100C5800F341056906460F467DBBD0F80080C8F30E
:100C68000A0323B30023D6F8008001932AF00EF973
:100C7800042819D1214C236943F001032361BBB235
:100C8800A8F800302AF002F904282ED108F102034E
:100C98000193019B3F0C1F802AF0F8F82369042870
:100CA80023F00103236125D06FF0010505E02AF048
:100CB800EDF8042805D04FF0FF35284602B0BDE80E
:100CC800F0810E4C236943F002032361C4F81480B9
:100CD800236943F0400323612AF0D8F823690428E4
:100CE80023F002032361BDD0E5E7236923F0010364
:100CF8002361D9E7336804333360DEE7002002401C
:100D0800F8B504460D468E180027B54201D1206972
:100D1800F8BDE368591CE160234415F8012B1A72E9
:100D28000429F2D1A1682046FFF791FFE76020610E
:100D3800EBE7F8B50D4E336AB28C1A850446FF20EE
:100D48000D462AF033F8074655B1013D54FA85F5AA
:100D5800013CFF202AF02AF804F8010FAC42F8D130
:100D6800336AB28C9A613846F8BD00BF3C6E0020E9
:100D780010F0AEBD38B51F4C94F8543094F8552097
:100D88001844C0B2904284F8540005D3801AC0B207
:100D98009042FBD284F85400362010F0ADFD94F850
:100DA80054502544232095F85C3303EB4303234434
:100DB80093F85810FFF7DCFF95F85C3303EB430317
:100DC8002344242093F85910FFF7D2FF95F85C3399
:100DD80003EB43031C44252094F85A10FFF7C8FF7F
:100DE80095F85C130A20FFF7C3FF3A20BDE83840A6
:100DF80010F082BD7C23002038B5104C054694F8CD
:100E08005B130C20FFF7B4FF08211820FFF7B0FF91
:100E18008DB994F859130920FFF7AAFF0D2107206F
:100E2800FFF7A6FF16211920FFF7A2FF0A20BDE849
:100E3800384005F0AFBB0321EDE700BF7C2300205D
:100E480010B490E80600047B40690223A3404B607D
:100E580013685DF8044B4FF6FE710B40136005F004
:100E68008FBC03682DE9F041DF691FB13B46BDE83F
:100E7800F0411847002A164611DD04460D460E4477
:100E880000E023689B68204698470028F9D023682B
:100E980015F8011B1B6820469847AE42F1D1BDE802
:100EA800F08103689B69184703685B691847036802
:100EB800DB68184703685B68184703681B681847AE
:100EC800014B1868F9E700BF34660020054B53F85A
:100ED800203033B11A689B88918A0B4218BF1B04D3
:100EE80093617047AC61002003682DE9F04F03F16E
:100EF8003845644EAD0A0124755D05F01F066D097D
:100F0800022D04FA06F400F0A280032D00F0A4805C
:100F1800012D52D08088B0FA80F4C4F11F04A4B225
:100F2800E50803EB850504F007042E6AA4000F27E3
:100F3800A74026EA07062E622E6A01F0030702FA86
:100F480004F47A1E3443012AC1F3810CC1F300185A
:100F58002C62C1F3411135D9C60700F19780850786
:100F680000F1A380440700F1B180020700F1BF80BF
:100F7800C60600F1CD80850600F1DB80440600F14D
:100F8800E980020600F1F780C60500F105818505B4
:100F980000F11381440500F12181020500F12F8140
:100FA800C60400F13D81850400F14B81440400F141
:100FB8005981020455D4BDE8F08F334D6E6934432E
:100FC8006C61A7E7002422464FF0010E4FF0030999
:100FD80004E00132102A04F10204ECD00EFA02F601
:100FE80036EA0005F5D1D3F808A009FA04F5ED436F
:100FF8000AEA050AC3F808A0D3F808B00CFA04FAFC
:101008004AEA0B0AC3F808A0B3F804A01FFA8AFA40
:101018002AEA06069E80B3F804A008FA02F646EA11
:101028000A06B6B29E801E682E401E60D3F800A045
:1010380007FA04F646EA0A061E60D3F80CA001FA7D
:1010480004F605EA0A0A46EA0A05DD60C1E70E4D1C
:10105800AE693443AC615DE70B4DEE693443EC6136
:1010680058E71A6822F040421A601A6842EA8777FD
:101078001F60DA6822F0404242EA8171D960BDE817
:10108800F08F00BFC41C0308001002401A6822F049
:1010980003021A601A683A431A60DA6822F00302F7
:1010A8000A438507DA607FF55DAF1A6822F00C0203
:1010B8001A601A6842EA87021A60DA6822F00C029B
:1010C80042EA81024407DA607FF54FAF1A6822F0DE
:1010D80030021A601A6842EA07121A60DA6822F0C7
:1010E800300242EA0112DA6002077FF541AF1A685E
:1010F80022F0C0021A601A6842EA87121A60DA6897
:1011080022F0C00242EA8112C606DA607FF533AFE8
:101118001A6822F440721A601A6842EA07221A60B2
:10112800DA6822F4407242EA01228506DA607FF525
:1011380025AF1A6822F440621A601A6842EA8722C8
:101148001A60DA6822F4406242EA81224406DA60D0
:101158007FF517AF1A6822F440521A601A6842EAFB
:1011680007321A60DA6822F4405242EA0132DA6041
:1011780002067FF509AF1A6822F440421A601A681D
:1011880042EA87321A60DA6822F4404242EA81323F
:10119800C605DA607FF5FBAE1A6822F440321A60A1
:1011A8001A6842EA07421A60DA6822F4403242EAD0
:1011B80001428505DA607FF5EDAE1A6822F4402217
:1011C8001A601A6842EA87421A60DA6822F44022F2
:1011D80042EA81424405DA607FF5DFAE1A6822F4FC
:1011E80040121A601A6842EA07521A60DA6822F452
:1011F800401242EA0152DA6002057FF5D1AE1A6860
:1012080022F440021A601A6842EA87521A60DA68C1
:1012180022F4400242EA8152C604DA607FF5C3AE86
:101228001A6822F040721A601A6842EA07621A6065
:10123800DA6822F0407242EA01628504DA607FF5DA
:10124800B5AE1A6822F040621A601A6842EA8762EC
:101258001A60DA6822F0406242EA81624404DA6085
:101268007FF5A7AE1A6822F040521A601A6842EA5F
:1012780007721A60DA6822F0405242EA0172DA60B4
:1012880097E6036803F138422DE9F04F920A584D6A
:10129800AA5C02F01F0552090124022A04FA05F487
:1012A80000F08C80032A00F08E80012A3CD001F0E7
:1012B80003077A1E012AC1F3810CC1F30018808844
:1012C800C1F3411135D9C60700F19680850700F1B1
:1012D800A280440700F1B080020700F1BE80C60674
:1012E80000F1CC80850600F1DA80440600F1E88040
:1012F800020600F1F680C60500F10481850500F1BB
:101308001281440500F12081020500F12E81C604F6
:1013180000F13C81850400F14A81440400F15881C0
:10132800020455D4BDE8F08F324A55692C43546104
:10133800BDE7002422464FF0010E4FF0030904E0F8
:101348000132102A04F10204ECD00EFA02F636EA51
:101358000005F5D1D3F808A009FA04F5ED430AEA27
:10136800050AC3F808A0D3F808B00CFA04FA4AEA48
:101378000B0AC3F808A0B3F804A01FFA8AFA2AEAED
:1013880006069E80B3F804A008FA02F646EA0A06A2
:10139800B6B29E801E682E401E60D3F800A007FAE1
:1013A80004F646EA0A061E60D3F80CA001FA04F611
:1013B80005EA0A0A46EA0A05DD60C1E70D4A9569A9
:1013C8002C43946173E70B4AD5692C43D4616EE7CB
:1013D8001A6822F040421A601A6842EA87771F604A
:1013E800DA6822F0404242EA8171D960BDE8F08FA4
:1013F800C41C0308001002401A6822F003021A6095
:101408001A683A431A60DA6822F003020A43850729
:10141800DA607FF55EAF1A6822F00C021A601A686B
:1014280042EA87021A60DA6822F00C0242EA810274
:101438004407DA607FF550AF1A6822F030021A606C
:101448001A6842EA07121A60DA6822F0300242EAA1
:101458000112DA6002077FF542AF1A6822F0C00273
:101468001A601A6842EA87121A60DA6822F0C00223
:1014780042EA8112C606DA607FF534AF1A6822F4B0
:1014880040721A601A6842EA07221A60DA6822F47F
:10149800407242EA01228506DA607FF526AF1A68B3
:1014A80022F440621A601A6842EA87221A60DA68EF
:1014B80022F4406242EA81224406DA607FF518AFDE
:1014C8001A6822F440521A601A6842EA07321A600F
:1014D800DA6822F4405242EA0132DA6002067FF505
:1014E8000AAF1A6822F440421A601A6842EA873240
:1014F8001A60DA6822F4404242EA8132C605DA60AC
:101508007FF5FCAE1A6822F440321A601A6842EA83
:1015180007421A60DA6822F4403242EA014285053D
:10152800DA607FF5EEAE1A6822F440221A601A6873
:1015380042EA87421A60DA6822F4402242EA81428B
:101548004405DA607FF5E0AE1A6822F440121A60AA
:101558001A6842EA07521A60DA6822F4401242EA2C
:101568000152DA6002057FF5D2AE1A6822F4400211
:101578001A601A6842EA87521A60DA6822F440024E
:1015880042EA8152C604DA607FF5C4AE1A6822F0D6
:1015980040721A601A6842EA07621A60DA6822F032
:1015A800407242EA01628504DA607FF5B6AE1A68D5
:1015B80022F040621A601A6842EA87621A60DA68A2
:1015C80022F0406242EA81624404DA607FF5A8AE04
:1015D8001A6822F040521A601A6842EA07721A60C2
:1015E800DA6822F0405242EA0172DA6098E610B5F1
:1015F8000409013C052C17D80C4B33F8142000F0D3
:101608000F0042FA00F313F001030DD0012303FA8F
:1016180000F0013810402BF0FDF9054A054B125D2A
:10162800104403EBC00010BD002010BDB420030817
:10163800C02003083C6E00202DE9F04F4A484B4B70
:101648004B4C4FF090414FF0010A4FF002094FF018
:1016580004084FF0080C4FF0100E20274026802574
:1016680030F8022B12F0010F03D01960A3F804A080
:10167800083312F0020F03D01960A3F8049008335E
:1016880012F0040F03D01960A3F80480083312F095
:10169800080F03D01960A3F804C0083312F0100F24
:1016A80003D01960A3F804E0083312F0200F02D029
:1016B80019609F80083312F0400F02D019609E8095
:1016C800083312F0800F02D019609D80083312F49D
:1016D800807F05D04FF4807B1960A3F804B00833ED
:1016E80012F4007F05D04FF4007B1960A3F804B012
:1016F800083312F4806F05D04FF4806B1960A3F89B
:1017080004B0083312F4006F05D04FF4006B196071
:10171800A3F804B0083312F4805F05D04FF4805B5F
:101728001960A3F804B0083312F4005F05D04FF431
:10173800005B1960A3F804B0083312F4804F05D099
:101748004FF4804B1960A3F804B00833D20B04D0CF
:101758004FF4004219609A80083301F58061A14274
:101768007FF47EAFBDE8F08FB42003083C6E002004
:1017780000180048002867D003682DE9F04F03F1EE
:1017880038445C4EA40A0125345D04F01F06640940
:10179800022C05FA06F558D0032C00F0A580012C80
:1017A80058D08088B0FA80F4C4F11F04A4B2E508C8
:1017B80003EB850504F007042E6AA4000F27A74051
:1017C80026EA07062E622E6A01F00307A2407C1E55
:1017D8003243012CC1F3810CC1F300182A62C1F312
:1017E80041113CD9C60700F18980850700F1958031
:1017F800440700F1A380020700F1B180C60600F19A
:10180800BF80850600F1CD80440600F1DB8002062A
:1018180000F1E980C60500F1F780850500F1058132
:10182800440500F11381020500F12181C60400F18D
:101838002F81850400F13D81440400F14B810204AD
:1018480000F15981BDE8F08F70472B4CA6693543EC
:10185800A561A6E7284C666935436561A1E70024C0
:1018680022464FF0010E4FF0030904E00132102A1E
:1018780004F10204E6D00EFA02F636EA0005F5D1C4
:10188800D3F808A009FA04F5ED430AEA050AC3F8F3
:1018980008A0D3F808B00CFA04FA4AEA0B0AC3F80D
:1018A80008A0B3F804A01FFA8AFA2AEA06069E805E
:1018B800B3F804A008FA02F646EA0A06B6B29E8011
:1018C8001E682E401E60D3F800A007FA04F646EA08
:1018D8000A061E60D3F80CA001FA04F605EA0A0A03
:1018E80046EA0A05DD60C1E7034CE6693543E56170
:1018F80057E700BFC41C0308001002401A6822F012
:1019080003021A601A683A431A60DA6822F003027E
:101918000A438507DA607FF56BAF1A6822F00C027C
:101928001A601A6842EA87021A60DA6822F00C0222
:1019380042EA81024407DA607FF55DAF1A6822F057
:1019480030021A601A6842EA07121A60DA6822F04E
:10195800300242EA0112DA6002077FF54FAF1A68D7
:1019680022F0C0021A601A6842EA87121A60DA681E
:1019780022F0C00242EA8112C606DA607FF541AF62
:101988001A6822F440721A601A6842EA07221A603A
:10199800DA6822F4407242EA01228506DA607FF5AD
:1019A80033AF1A6822F440621A601A6842EA872242
:1019B8001A60DA6822F4406242EA81224406DA6058
:1019C8007FF525AF1A6822F440521A601A6842EA75
:1019D80007321A60DA6822F4405242EA0132DA60C9
:1019E80002067FF517AF1A6822F440421A601A6897
:1019F80042EA87321A60DA6822F4404242EA8132C7
:101A0800C605DA607FF509AF1A6822F440321A6019
:101A18001A6842EA07421A60DA6822F4403242EA57
:101A280001428505DA607FF5FBAE1A6822F4402290
:101A38001A601A6842EA87421A60DA6822F4402279
:101A480042EA81424405DA607FF5EDAE1A6822F475
:101A580040121A601A6842EA07521A60DA6822F4D9
:101A6800401242EA0152DA6002057FF5DFAE1A68D9
:101A780022F440021A601A6842EA87521A60DA6849
:101A880022F4400242EA8152C604DA607FF5D1AE00
:101A98001A6822F040721A601A6842EA07621A60ED
:101AA800DA6822F0407242EA01628504DA607FF562
:101AB800C3AE1A6822F040621A601A6842EA876266
:101AC8001A60DA6822F0406242EA81624404DA600D
:101AD8007FF5B5AE1A6822F040521A601A6842EAD9
:101AE80007721A60DA6822F0405242EA0172DA603C
:101AF80002047FF5A7AE1A6822F040421A601A68FD
:101B080042EA87771F60DA6822F0404242EA817130
:101B1800D960BDE8F08F002852D0036803F138423D
:101B28002DE9F04F920A514DAA5C02F01F055209A7
:101B38000124022A04FA05F443D0032A00F0908015
:101B4800012A43D001F003077A1E012AC1F3810C50
:101B5800C1F300188088C1F341113CD9C60700F1D0
:101B68008980850700F19580440700F1A38002076A
:101B780000F1B180C60600F1BF80850600F1CD8076
:101B8800440600F1DB80020600F1E980C60500F199
:101B9800F780850500F10581440500F113810205F0
:101BA80000F12181C60400F12F81850400F13D81F7
:101BB800440400F14B81020400F15981BDE8F08F23
:101BC80070472B4A95692C439461BBE7284A5569AD
:101BD8002C435461B6E7002422464FF0010E4FF023
:101BE800030904E00132102A04F10204E6D00EFAD7
:101BF80002F636EA0005F5D1D3F808A009FA04F58B
:101C0800ED430AEA050AC3F808A0D3F808B00CFAAD
:101C180004FA4AEA0B0AC3F808A0B3F804A01FFAAA
:101C28008AFA2AEA06069E80B3F804A008FA02F6A1
:101C380046EA0A06B6B29E801E682E401E60D3F899
:101C480000A007FA04F646EA0A061E60D3F80CA0BC
:101C580001FA04F605EA0A0A46EA0A05DD60C1E760
:101C6800034AD5692C43D4616CE700BFC41C030840
:101C7800001002401A6822F003021A601A683A43F8
:101C88001A60DA6822F003020A438507DA607FF5F2
:101C98006BAF1A6822F00C021A601A6842EA8702CF
:101CA8001A60DA6822F00C0242EA81024407DA601C
:101CB8007FF55DAF1A6822F030021A601A6842EAAE
:101CC80007121A60DA6822F0300242EA0112DA607A
:101CD80002077FF54FAF1A6822F0C0021A601A682F
:101CE80042EA87121A60DA6822F0C00242EA8112D8
:101CF800C606DA607FF541AF1A6822F440721A60AE
:101D08001A6842EA07221A60DA6822F4407242EA44
:101D180001228506DA607FF533AF1A6822F4406243
:101D28001A601A6842EA87221A60DA6822F4406266
:101D380042EA81224406DA607FF525AF1A6822F468
:101D480040521A601A6842EA07321A60DA6822F4C6
:101D5800405242EA0132DA6002067FF517AF1A688C
:101D680022F440421A601A6842EA87321A60DA6836
:101D780022F4404242EA8132C605DA607FF509AFB3
:101D88001A6822F440321A601A6842EA07421A6056
:101D9800DA6822F4403242EA01428505DA607FF5CA
:101DA800FBAE1A6822F440221A601A6842EA874297
:101DB8001A60DA6822F4402242EA81424405DA6075
:101DC8007FF5EDAE1A6822F440121A601A6842EAEA
:101DD80007521A60DA6822F4401242EA0152DA60C5
:101DE80002057FF5DFAE1A6822F440021A601A680D
:101DF80042EA87521A60DA6822F4400242EA8152C3
:101E0800C604DA607FF5D1AE1A6822F040721A6013
:101E18001A6842EA07621A60DA6822F0407242EAF7
:101E280001628504DA607FF5C3AE1A6822F0406269
:101E38001A601A6842EA87621A60DA6822F0406219
:101E480042EA81624404DA607FF5B5AE1A6822F08E
:101E580040521A601A6842EA07721A60DA6822F079
:101E6800405242EA0172DA6002047FF5A7AE1A68AE
:101E780022F040421A601A6842EA87771F60DA68DF
:101E880022F0404242EA8171D960BDE8F08F70B516
:101E9800044690F85900002833D104F11405236E44
:101EA80080226B2128469847642004F073FB236E38
:101EB800284603226B219847236E94F85420192151
:101EC800284698470F2004F065FB236E94F85220AB
:101ED80028461A219847236E284618221B2198471E
:101EE800236E284618221C219847236E2846022272
:101EF800372198472846236E01223821BDE87040D3
:101F08001847FFF774FB0546D0B1202300218371E1
:101F1800C171FFF700FE21460F4B41F8103F2846DC
:101F280028F0BEFEAB88B3FA83F3C3F11F035A1C33
:101F3800B3D001229A4009490B6813430B60ACE700
:101F48000146FFF7E8FD2146034B41F8103F2846BC
:101F580028F0A6FE0122EEE77908000800040140F7
:101F680010B1036882881A85704710B103688288A7
:101F78009A61704738B100298388026814BF00212C
:101F880010218B409361704710B40A4B0A4A1C78A1
:101F980001238340234052F8200029B9B3FA83F182
:101FA80049095DF8044BE5E7191C18BF01215DF8E4
:101FB800044BDFE7A8610020AC61002030B1036862
:101FC80082881B8A1A4214BF0120002070470F49DB
:101FD80038B5D1F890330446ABB11846FFF7EEFF99
:101FE800024691F894030A4B40B9187881F8942373
:101FF80018B114B1002220461A7038BD002AF4D155
:1020080001251D70F2E7024B1878F1E77C230020C8
:10201800843100202DE9F041C44E044604F014FA3E
:1020280096F895330546092B3ED8DFE813F0B7003C
:102038008901CE010A002E023A02590241004C00E1
:102048007800D6F8A803FFF7B9FF68B3FB2028F09B
:1020580009FF10F07F0527D0294625442046FEF7C2
:1020680068FE15F9013C002B1EDAA378012B1BD161
:102078006079C8B9E278237986F859236FF00401AA
:1020880086F85A33091B621D04F10A0500E06079DD
:102098008B18034412F8010F3344954283F85C030C
:1020A800F5D1042386F8953300242046BDE8F08155
:1020B80008230020C6F8B05386F89533FFF787FF4A
:1020C800002840F01E82D6F8A803FFF777FF002803
:1020D80040F025820024D6F8B413D6F8B02342F293
:1020E800283303FB01F3AD1A9D42DEDD012900F020
:1020F8009D8296F8DA33D6F89C035A1CDB0786F8DB
:10210800DA2340F10982FFF72BFF0D20FEF732FE9C
:1021180034200FF0F1FB072386F89533C5E704F068
:1021280093F9D6F8BC3340F26352C01A9042BBD937
:1021380036200FF0E1FBFE213E200FF0C9FB3A20CC
:102148000FF0DAFBDFF8F48136200FF0D5FB3B20E7
:1021580096F8C4730FF0D0FBD8F82030B8F82420D4
:102168001A857F2028F022FEFF2F08D0704C0137F7
:10217800274414F8010B28F019FEBC42F9D1D8F80D
:102188002030B8F824209A6135200FF0B5FB0823D9
:10219800C6F8B05386F89533022486E7654BD6F81F
:1021A80098231B689B1A0A2B7FF67EAF30200FF00E
:1021B800A3FB22F02BFA8E2028F054FE01210220E6
:1021C800FEF7D6FD0C211720FEF7D2FD1821084690
:1021D800FEF7CEFD19210620FEF7CAFD05210820CD
:1021E800FEF7C6FDFF213E20FEF7C2FD08210B20A9
:1021F800FEF7BEFD00210C20FEF7BAFD5C210D2084
:10220800FEF7B6FD76210E20FEF7B2FD27210F203E
:10221800FEF7AEFDAA211020FEF7AAFD39211120F4
:10222800FEF7A6FD11211220FEF7A2FD232113209F
:10223800FEF79EFD7A211420FEF79AFD4221152013
:10224800FEF796FD16211920FEF792FD6C211A2043
:10225800FEF78EFD03211B20FEF78AFD40211C207E
:10226800FEF786FD91211D20FEF782FD56212120D3
:10227800FEF77EFD10212220FEF77AFDA9212320FA
:10228800FEF776FD0A212420FEF772FD00212520A5
:10229800FEF76EFD11212620FEF76AFD592129203F
:1022A800FEF766FD88212C20FEF762FD31212D20E6
:1022B800FEF75EFD0B212E20FEF75AFD07210320B5
:1022C800FEF756FD00210920FEF752FD36200FF0DB
:1022D80013FB04210720FEF74BFD00210C20FEF71D
:1022E80047FD154C002536200FF006FBE9B20A2001
:1022F800FEF73EFD33200FF0FFFA22F039F9A32054
:1023080028F0B0FD2070A42028F0ACFD6070A52056
:1023180028F0A8FD0135FF2DA07004F10304E2D1D7
:10232800012386F895330024BFE600BF7C230020F4
:10233800402700207C610020D42300203C6E002030
:102348000120FFF744FE20B996F85833002B00F01F
:10235800C080D6F89C03FFF708FE14211920FEF769
:1023680007FDCA4A82231946126886F8A4330C204E
:10237800C6F8A023FEF7FCFC0C210720FEF7F8FCAA
:1023880008211820FEF7F4FC36200FF0B5FA96F86D
:1023980058102320FEF7ECFC96F859102420FEF77D
:1023A800E7FC96F85A102520FEF7E2FC00210A20E7
:1023B800FEF7DEFC3A200FF09FFA34200FF09CFA6B
:1023C800022386F8953300246FE696F9A433AF4AC2
:1023D800D6F8A0137D2BC4BF822386F8A4331368D4
:1023E8005B1A322B00F21181D6F8A803FFF7E6FD3D
:1023F80000283FF459AEFB2028F034FD10F07F058B
:102408003FF452AE294625442046FEF792FC15F8C3
:10241800013C1A067FF548AEA578012D7FF444AE3D
:1024280003F07F03312B3FF63FAE96F8A43386F8CE
:102438005B3336200FF060FA96F858102320FEF729
:1024480097FC96F859102420FEF792FC96F85A103B
:102458002520FEF78DFC00210A20FEF789FC3A2092
:102468000FF04AFA142004F03BF834200FF044FA35
:1024780000240523284686F8AC3386F85540FEF735
:10248800BBFC032386F895330FE696F8AC33782B1C
:102498006FD936200FF030FA052386F895330024DB
:1024A80003E696F85833002B00F0BD802824D6F8B0
:1024B8009C03FFF75AFD322004F06CF8D6F89C0311
:1024C800FFF74EFD322004F065F8631E13F0FF0499
:1024D800EDD10623002486F895332046BDE8F08127
:1024E8002F23002086F85530FEF786FC07230120AD
:1024F80086F89533FEF73EFC34200FF0FDF90124F1
:10250800D3E500243223C6F8B043C6F8B84386F8AA
:102518009543C6F8B433C8E5FFF727FDF5E5FB207A
:1025280028F0A0FC00F07F0013287FF6D3AD14211B
:102538002046FEF7FEFB94F91330002BBFF6CAAD18
:10254800237800220121112BC6F8B823C6F8B4134A
:1025580076D0D6F8B02342F22833AD1A9D427FF7E1
:10256800A3AD012200240120C6F8B823FEF702FC1F
:10257800CEE5D6F8A803FFF721FD00283FF494AD77
:10258800FB2028F06FFC10F07F053FF48DAD294645
:1025980025442046FEF7CDFB15F9013C002BBFF67C
:1025A80083ADA378012B7FF47FADE27896F8593399
:1025B8009A427FF479AD227996F85A339A427FF499
:1025C80073AD637996F8AC239A4219467FF46CADE3
:1025D80004F1050C002204E0052A87F85CE350D0DA
:1025E80063791CF801EF15F8038CB718F045D0B2E1
:1025F8001F4402F1010202D0BEF1000FECD12C29D8
:10260800EAD9034486F8553043E796F8A4331268AC
:10261800C6F8A0230533DBB219460C2086F8A4338C
:10262800FEF7A6FBE0E602F0FDFE52E7D6F8B83367
:10263800642B03F1010296D93223C6F8B43392E72A
:10264800627896F859339A4283D1A27896F85A3329
:102658009A427FF47EAFD6F89C03FFF786FC0846C3
:10266800FEF788FBE37803F00303022B10D0342035
:102678000FF042F9072386F89533C6F8B0530224C1
:1026880029E5053186F8AC1300240EE57C610020AD
:1026980003F0DAFEA37CC6F8BC0313F0800F03EB4B
:1026A800C3034FEA231314BF523B41331BB2D80074
:1026B8000A2290FBF2F06428A8BF642020EAE070A8
:1026C800C0B2A6F8C0332AF065FB2A4A2A4B517CCF
:1026D800107B96F8597333F8102033F8113096F8B8
:1026E800D803217996F85A4386F8C573C3F30B13B8
:1026F800884286F8C833B6F8C03386F8C933C2F3BF
:102708000B120EBF737896F8D933737086F8C72307
:1027180008BF86F8D93311224B1C03F01F0386F833
:10272800C42386F8C64372783478144F86F8D833B1
:1027380086F8C213002302F10108944206EB020C4A
:1027480007EB030ED8B208F03F0203F1010308D0EB
:102758009CF804008EF808000A2BECD17270184619
:1027680000E07470092386F8CA0386F8CB1386F84C
:10277800953382E784610020A06100204027002073
:102788002DE9F0410B4E346873691C400FD0DFF817
:1027980028800127B4FA84F3C3F11F0307FA03F56D
:1027A80058F8230003689847AC437561F2D1BDE837
:1027B800F08100BF00040140C46D00202DE9F04104
:1027C8000B4E346873691C400FD0DFF8288001274E
:1027D800B4FA84F3C3F11F0307FA03F558F823008A
:1027E80003689847AC437561F2D1BDE8F08100BF3A
:1027F80000040140C46D00202DE9F0410B4E3468FF
:1028080073691C400FD0DFF828800127B4FA84F3DD
:10281800C3F11F0307FA03F558F823000368984724
:10282800AC437561F2D1BDE8F08100BF00040140FE
:10283800C46D00202DE9F0410B4E346873691C40CB
:102848000FD0DFF828800127B4FA84F3C3F11F03FF
:1028580007FA03F558F8230003689847AC437561F5
:10286800F2D1BDE8F08100BF00040140C46D002032
:102878002DE9F0410B4E346873691C400FD0DFF826
:1028880028800127B4FA84F3C3F11F0307FA03F57C
:1028980058F8230003689847AC437561F2D1BDE846
:1028A800F08100BF00040140C46D00202DE9F04113
:1028B8000B4E346873691C400FD0DFF8288001275D
:1028C800B4FA84F3C3F11F0307FA03F558F8230099
:1028D80003689847AC437561F2D1BDE8F08100BF49
:1028E80000040140C46D00202DE9F0410B4E34680E
:1028F80073691C400FD0DFF828800127B4FA84F3ED
:10290800C3F11F0307FA03F558F823000368984733
:10291800AC437561F2D1BDE8F08100BF000401400D
:10292800C46D0020084A094808B5936943F00103BB
:102938009361002140222CF014FE054B4FF0FF322A
:102948001A60C3F8032008BD00100240C46D0020BF
:10295800046E00202DE9F041044618460D4616463F
:10296800984629F03DFB2768E6722844A07229465C
:102978007D69434632462046AC46BDE8F041604793
:10298800036810B504461B689847236820469B686F
:102998009847A37B0133A37310BD10B503680446A1
:1029A8009B689847FF2301226373227310BDF8B513
:1029B80005015B4C5B4B625961199A4204EB0507B0
:1029C80004BF01230B730646387A21F06DFE3B7A6B
:1029D80003F01F015B090122022B02FA01F278D0F1
:1029E800032B71D0012B67D0631901361879FEF7D4
:1029F800FEFDF6B2074610B11223C6718371631942
:102A08005879FEF7F4FD10B11323C6718371631969
:102A18009879FEF7ECFD10B11423C671837166191D
:102A28000E21F2793846FEF7A5FE7079FEF7DFFD34
:102A3800F2790E21FEF79EFEB079FEF7D8FDF27905
:102A48000E21FEF797FE6359364A934251D0364A13
:102A5800934259D0354A934240D02C44227B002AD5
:102A68002FD1012002249A8822F480521204120CD9
:102A78009A80998889B241F4805199801A8802F421
:102A8800415242F44572024322431A809A8822F442
:102A980070621204120C42F4E0629A809A8B22F45B
:102AA80000621204120C07219A8319821A8892B2C2
:102AB80042F040021A80F8BD1D4B996A0A439A6297
:102AC80092E700200446CEE7194B19690A431A61B8
:102AD8008AE7174BD9680A43DA6085E702F5EA32D4
:102AE800116941F400411161116921F4004111613A
:102AF800B3E702F56042D16841F48051D160D168F2
:102B080021F48051D160A8E702F5EC32116941F453
:102B180080411161116921F4804111619DE700BF75
:102B28000C6E00200030014000380040003C00409E
:102B380000100240427A02B9704710B50446036893
:102B4800406804F10A0198470023637210BD437A74
:102B58005A1C0344D2B242729972037A934200D843
:102B680002B9704710B504460368406804F10A01C9
:102B780098470023637210BD10B40B49002301E08D
:102B8800272B0CD011F8132082424FEA430403F19B
:102B98000103F5D121445DF8044B487870470020C3
:102BA8005DF8044B704700BFD4F6020870B544883E
:102BB80006460D46C4F30B042246002128462CF095
:102BC800D0FC3369094A934209D3094A934206D291
:102BD800224628461946BDE870402AF0F9B923B1C3
:102BE80021462846BDE87040184770BDA860030814
:102BF800BE610308064B07498B4202D300231846DF
:102C080070471A88C2F30B029042F8D01433F3E7E6
:102C1800485C0308A8600308024A136823EA000016
:102C28001060704744340020F8B5174D2B78A42B5A
:102C380028D16B78BE2B25D1022229464FF6FF708A
:102C4800FDF70AFC114FAC1C22884AB1A618BE42F7
:102C580018D2052A16D92146FDF7FEFB3446F3E7BC
:102C680021460222FDF7F8FB0222A118FDF7F4FB2A
:102C78000634074B641B1C8041F60F53C31A584295
:102C88005841F8BD0020F8BD00F003080000040812
:102C98009A4100202DE9F04FDFF848914C4F8BB056
:102CA8000326A7EB09071822002104A82CF059FCD9
:102CB800484BCDF8109005971A69120604D5464A74
:102CC8005A6002F188325A6001228DF82420342299
:102CD800DA60424B424C1B88ADF80030022269464C
:102CE80004A8FEF70DF8022269464FF6FF70FDF7BB
:102CF800B3FBDFF8F4A080464FF0000B544536D301
:102D08000AAC002524F8245D0222214604A8FDF718
:102D1800F7FF022221464046FDF79EFB40BAC0431A
:102D2800ADF80800022202A904A8FDF7E9FF0798F8
:102D380060B106ABC0F10402294618442CF011FC1E
:102D4800069904A8FDF783FF079508909DF824309D
:102D5800089A23B11F490B6943F080030B61013EB8
:102D68002DD0002A9FD1FFF75FFF50B32CE0658874
:102D78008DF80DB0C5F30B05AB1DADF808302388F1
:102D8800C3F30B02ADF80A201B0B062202A904A804
:102D98008DF80C30FDF7B4FF062202A94046FDF776
:102DA8005BFB616880462A4604A8FDF7A9FF6168B5
:102DB80040462A46FDF750FB143480469EE7002A19
:102DC800D1D0052002F038FB0BB0BDE8F08F00BF72
:102DD80000000408002002402301674522F702088A
:102DE800485C030800F00308A86003080378202B58
:102DF800024600F10100F9D0092BF7D02D2B2CD079
:102E08002B2B03BF5378B7EE000A0246B7EE000A31
:102E1800A3F13001C8B209289FED467A10D8F2EE26
:102E2800046A07EE901AF8EEE77A12F8013FE7EE27
:102E3800267AA3F13001C8B20928B0EE677AF0D932
:102E48002E2B4CD003F0DF03452B0BD0F7EE007A86
:102E580067EE276A20EE260A70475378BFEE000A0D
:102E68000246D5E710B451782D2959D02B290ABF2D
:102E78009178501C901C0024A1F13003092B53D8E1
:102E8800002303EB830301EB430310F8011FA1F1B7
:102E98003002092AA3F13003F3D9B3F59A7F28BF8A
:102EA8004FF49A73072B42D9DFED236A1A46F7EEDF
:102EB800007A083A072A67EEA67AFAD803F00703D9
:102EC8002BB1F2EE046A013B67EEA67AFBD124B37C
:102ED800C7EE276A5DF8044B20EE260A7047537840
:102EE800A3F13001C8B2092802F10102AAD8F2EE12
:102EF800046AF0EE665A07EE901AF8EEE77A12F8CE
:102F0800013F87EEA66AA3F13001C8B2092866EE30
:102F1800A56A37EE067AEED994E767EE276AD9E70D
:102F2800901C91780124A7E7F7EE007ACFE7F7EE37
:102F3800007AC5E70000000020BCBE4CB5EEC00A10
:102F4800DFED317AF1EE10FACCBF30EE270A30EE21
:102F5800670ADFED2E7A20EE270A30B5FDEEC07A3B
:102F680087B017EE904A054684EAE470002303A967
:102F7800A0EBE47001930093029319F007FC002C76
:102F8800ACBF20232D2303A88DF8003029F028F8A2
:102F9800012803A924D002282DD0032805BF3023F7
:102FA800684668468DF801302CF001FB684629F028
:102FB80017F80338C4B22246694628462CF055FB58
:102FC80000232B55284629F00BF82E22431C2A549F
:102FD8000DEB0401E8182CF007FB284607B030BDBC
:102FE800302368468DF801308DF802308DF80330B3
:102FF8002CF0DDFADAE7302368468DF801308DF8D9
:1030080002302CF0D4FAD1E76F12033A00007A4468
:103018002DE9F041064615460846B6FBF2F43CB9E0
:1030280005FB1464124B1B5D00F8013BBDE8F08101
:10303800B4FBF2F767B90E4B05FB174705FB1464A1
:10304800DA5D00F8012B1B5D00F8013BBDE8F0815B
:10305800B7FBF2F8B8F1000F02D04046FFF7D8FFEF
:1030680005FB1878024B13F8082000F8012BE3E75A
:10307800E820030830B402681146531C036011F8B5
:10308800024B0160D31C517803609378151D0560CD
:103098001B0443EA0123D078234343EA006030BC91
:1030A80070470368591C1A46016012F8021B026037
:1030B800587841EA0020704703685A1C0260187863
:1030C800704738B504460068154629F081FF226824
:1030D8002A44226038BD036810B40A0A5C1C0460E4
:1030E8001A7003685A1C026019705DF8044B704727
:1030F80003685A1C026010B4197003680A0A5C1C41
:1031080004601A7003680A0C5C1C04601A70036877
:10311800090E5A1C026019705DF8044B7047036869
:103128005A1C026019700368090A5A1C0260197057
:1031380070472DE9F047002488B080460F461E46A8
:10314800A14605AD531C0393117839B3252933D112
:10315800931CCDF810900393507830284ED04FF040
:10316800000AA0F13003DBB2092B42D96C2819D030
:10317800642800F0938024D825281CD063D95828C7
:1031880076D063281BD131784046B847039A531C40
:1031980003931178043601340029D7D1204608B0AA
:1031A800BDE8F087039B5A1C03921B78642B7CD0E4
:1031B8002AD8252B54D1252140460134B847039AF3
:1031C800C0E7732833D044D975284FD106F1040ECF
:1031D80030682B4600220A217646FDF739F8049A12
:1031E8000095534639464046FDF76FF8039A044464
:1031F800A8E704AA03A928F03FF9B7E7D31C03936B
:1032080090784FF0010AACE7732B10D05BD9752B7F
:103218003AD0782B96D1A3F15802B2FA82F23068EC
:1032280052092B4610210436FDF712F8D7E7336808
:10323800049A0093394600234046FDF746F80436C1
:103248000444039A7EE70028B9D1204608B0BDE8B7
:10325800F0876E28B3D1039A336804361C6071E78F
:103268002AD9582BD7D0632B8DD06BE77828A6D1D5
:10327800A0F15802B2FA82F2306852092B461021A6
:10328800FCF7E6FF0436AAE706F1040E30682B4681
:1032980000220A217646FCF7DBFFA0E7331D3068E1
:1032A80029461E46FCF7A7FF99E7331D30682946D3
:1032B8001E46FCF7A0FF92E7002B7FF443AF2046A1
:1032C80008B0BDE8F0876E2BC6D03BE70EB400B55A
:1032D80084B005AB019053F8042B0649039301A869
:1032E800FFF727FF019B00221A7004B05DF804EB7A
:1032F80003B07047C90200080FB430B583B006ABFD
:103308000A490B4853F8042B096800680193FFF732
:1033180010FF084C05462068FDF7C6FD0028FAD0C6
:10332800284603B0BDE8304004B070475C2E00204A
:10333800602E002034660020DFED2B7AB4EEE70A19
:10334800F1EE10FA4ADDDFED296A9FED297A01E0F6
:10335800B0EE670AB4EEC70AF1EE10FA70EE667ABC
:10336800F6DC9FED247AF4EEC77AF1EE10FA38D540
:10337800DFED1E6A9FED207A01E0F0EE407AF4EE70
:10338800C77AF1EE10FA37EEA60AF6D4DFED1B7A0B
:10339800B4EEE70AF1EE10FA14DDDFED137A37EE3A
:1033A800C00A60EE006A9FED166A9FED167ADFED9F
:1033B800167AA6EE867A20EE266AE6EE877AA6EEDA
:1033C800270A7047DFED117AB4EEE70AF1EE10FA3A
:1033D80044BFDFED087A37EEC00AE2E7F0EE407A44
:1033E800BFE7B0EE670AD1E7DB0F4940DB0FC94002
:1033F800E4CB1641DB0F49C0E4CB16C1DB0FC93F54
:1034080092E741B99730083C15A82ABEDB0FC9BF1F
:1034180080EAE073A3EBE0738B4205DB002801DD53
:10342800401A704702D1704700207047084470471F
:1034380009B909E0194690FBF1F301FB13030846AB
:10344800002BF7D1084670470146FBE710B507EE99
:10345800901A2DED028BB8EE678ADFED217A28EEFF
:10346800008A044628EE278AB0EE480A2AF004F8B3
:10347800F0EE408AB0EE480A29F060FFF7EE007AD5
:103488009FED187AF0EE675AE8EE875A0023A36199
:10349800B0EE676AC7EEA56A63612362E361A8EECE
:1034A800C76ABDEC028B77EEC07AB6EE007AF8EE0A
:1034B800005A27EE877A20EE250A27EE267A26EE8E
:1034C800266A67EEA67A20EE260A84ED046AC4ED21
:1034D800017A84ED007A84ED027A84ED030A10BD46
:1034E80027D4D236F304353F10B44C09012250F8E2
:1034F800243001F01F0102FA01F10B4340F8243097
:103508005DF8044B70474B0901F01F0150F8232068
:10351800012303FA01F1114214BF18460020704735
:103528002DE9F041754B1B78012B00F0D980744BC5
:10353800822703F1EA0628215A22782555242D20CE
:103548001F7059709A70DD7019715A719C71D87119
:103558004E33B342F4D16B4B6B4A598918889C8A15
:10356800B3F816E05E8B1F8BDD8DB3F804C021F431
:1035780000614FF0FA0820F40060598140F66111AB
:1035880024F400642EF4006EA3F85680188040F6E8
:103598002B08598203CA26F40066A3F810809C827F
:1035A80040F698181C8EA3F816E0DFF878E1574A21
:1035B800A3F8028027F4006725F4006540F6811817
:1035C8005E83534ECEF80000CEF804102CF4006C45
:1035D8000021A3F80C8024F4006440F6CC181F8363
:1035E800DD851C274FF40065212057709070A3F8E3
:1035F8000E80A3F804C01D81DD8031701C86DF8F2A
:10360800B3F84460DD8B1C8C588C9A8CB3F81C8002
:10361800B3F83CC0B3F832E027F4006726F400663C
:1036280025F4006524F4006420F4006022F40062AC
:10363800DF87A3F84460DF8C1E8DDD831C849D8D9D
:103648009C8E58849A84D88E1A8F27F4006726F4A3
:10365800006625F4006524F4006420F4006022F478
:103668000062DF841E8540F6691740F68A1628F442
:1036780000682CF4006C2EF4006E5F859D859C8696
:10368800D8861A87A3F81C80A3F83CC0A3F832E0B8
:103698005E87B3F84060B3F84250B3F846401D4A1D
:1036A800B3F84800517026F4006625F4006524F448
:1036B80000640127A3F84060A3F8425003261D25A3
:1036C800A3F84640302420F40060917051711770BF
:1036D80016719571D470D471A3F84800BDE8F081D3
:1036E8000D4A0E480E494FF4486640F22E45022412
:1036F8001680158284700B7019E700BFC441002042
:10370800163300203446002010210308A04600206C
:10371800D0670020584B0020304C0020C86800209B
:103728000C4B0020386000202DE9F041204D214C41
:1037380000264FF02608A5F1800785F80680EE716F
:1037480031462846C4F8A853FEF7E5F905F1880381
:103758000522184687F80E21803587F80F61C4F8CE
:103768009C3320F0BFFF2846202187F8068187F880
:103778000761C4F89053FDF784FD2846FEF71EFC48
:103788000D4A0E490E4B17680E4D0F4A84F89403E4
:1037980084F895633220C4F8B063C4F8B863C4F8F9
:1037A8009873C4F8B4030D601A60BDE8F08100BFD7
:1037B800BC6E00207C2300207C61002000290020B2
:1037C8002458002093040008A104000808230B7063
:1037D800AAE72DE9F84FDFF8B4A0DFF8B490DFF8D6
:1037E800B480274E012304208AF8003027F0B8FA65
:1037F800D9F80000FEF7B4FB052027F005FB0020F0
:1038080027F002FB062027F0FFFA002027F0FCFA39
:1038180098F80040042044F0010427F0F5FA204607
:1038280027F0F2FA33888BB1164D174F002415F89C
:1038380004B0072027F0E8FA584627F0E5FA2A5D91
:1038480033883A550134A4B2A342F0D8072027F0B0
:10385800DBFAFF2027F0D8FA98F80040042027F078
:10386800D3FA204627F0D0FAD9F80000FEF77DFBFE
:10387800022027F075FA00238AF80030BDE8F88F97
:1038880020070020C8380020F03A0020DA3A00204B
:10389800C8670020E13A00202DE9F0414A4E042093
:1038A80027F05EFA3068FEF75BFB484B1B78012B6C
:1038B8007BD062D3022B0AD1DFF83081082388F845
:1038C80000300D254FF4C373414F3B8010E0DFF803
:1038D8001C813F4F98F8003003F04003002B14BFC1
:1038E8004FF4F0734FF4C3733B8014BF10250D25BC
:1038F800002404F11000C0B227F086FA0134012038
:1039080027F082FAA3B2AB42F3D398F80040314DC6
:10391800002027F079FA204627F076FA2E4B1C78FB
:10392800022027F071FA204627F06EFA2B4B1C78FC
:10393800032027F069FA204627F066FA284B1C78FE
:103948000420044327F060FA204627F05DFA306827
:10395800FEF70BFB022027F003FA3A8821480021E2
:103968002BF0FFFD2B7833B11F4B1B7833B30023AB
:103978002B70BDE8F081BDE8F081A02027F044FA63
:10398800002027F041FA00F00603022BDFF85C80E4
:1039980007D000F00500012803D1482388F800303B
:1039A80008E0082388F800308BE7DFF840804823D8
:1039B80088F8003010254FF4F07385E7FFF709FF0A
:1039C80000232B70BDE8F081C8670020CC67002079
:1039D8002007002000000020D3670020D4670020C3
:1039E800E13A0020F03A0020DA3A002024070020CB
:1039F800B0F1FF3F0AD0022810B403DC5DF8044B95
:103A0800FCF7E4BF00205DF8044B704700207047C6
:103A18000378012B00D07047417990F904003123D5
:103A2800F422E5E7F0B55B4B5B4A97B01968914221
:103A380000AF00F0A3805949594A00234FF47000A1
:103A4800C1F888003B607B60136843F480331360DF
:103A580003E03B68B3F5A04F09D0136803F40033C3
:103A68007B603B6801333B607B68002BF1D04C4B9B
:103A78001B6813F4003318BF01237B607B68012B9C
:103A880052D0464C464B474AE260474A596A116051
:103A98005A6A42F080725A625A6942F4FC025A61C8
:103AA8000025032207F10801012341F6FF764FF0B4
:103AB8009040FD60BE603A73BB7325F09FF94FF6E6
:103AC800FF7307F108013948BB6025F097F907F142
:103AD80008013748374E25F091F907F108013648B3
:103AE80025F08CF907F10801344825F087F907F12A
:103AF8000801334825F082F907F1080024F034FF63
:103B0800BB683049304AA1FB031330499B0CF020B5
:103B18004FF0070E5C370B60566084F82300956001
:103B2800C2F800E0BD46F0BD294A1D4B12211160C4
:103B38005A685A605A685A605A6842F480625A60F1
:103B48005A6822F47C125A605A6842F4E8125A60A1
:103B58001A6842F080721A601A689201FCD5596896
:103B68000F4A21F003015960596841F00201596078
:103B7800536803F00C03082BFAD182E700221A607D
:103B880062B6144B1B6883F30888134B1B6898476D
:103B9800FEE700BFFC9F0020EFBEADDE00ED00E0B9
:103BA800001002400005FA05A84F00200004004854
:103BB800000800483F190100000C004800100048A8
:103BC8000014004883DE1B4310E000E08061002001
:103BD8000020024000D8FF1F04D8FF1F70B50F4C0B
:103BE8000F4DC0EBC00004EB8004686926693043C0
:103BF800686182B09209667BA1600025012101A855
:103C080063618DF804608DF805208DF806508DF8F5
:103C1800071024F09DFD02B070BD00BF1C0C0020F1
:103C280000100240074BC0EBC00030B403EB80002B
:103C3800054C056963692B4363610176427630BCA4
:103C4800704700BF1C0C0020001002402DE9F04F07
:103C58005E4C54F8204083B0002C71D0666D9846B5
:103C680091465B4B7268E264A160236004F15A01DB
:103C78004FF4807304F5AD726161A261E360236162
:103C88000746307E20F010FDF068A8B1514B0021A6
:103C98005A68904203F11C0300F0928001310C290C
:103CA800F6D100207A1CD2B20C21FFF7BBFFE36CDF
:103CB800F26822632433A364B068D8B1454B00216D
:103CC8005A68904203F11C0378D001310C29F7D1CE
:103CD80000257A1CD2B20B212846FFF7A3FF234602
:103CE800F27E3D492846FFF779FFE36CB2686263CC
:103CF8002833636494F85900FDF779FC054694F875
:103D08005800FDF774FC18F0080F824696F819B0B1
:103D18001AD0CDB118F0110F4FF00B0307F10107BE
:103D280014BF4E213E21EF715A46AB712846FDF76C
:103D380021FD18F0010F45D0236B5BB3636B4BB3C8
:103D4800204603B0BDE8F08F18F0010F0CBF4FF00C
:103D58002E084FF04E0819F0020F09D045B10B227A
:103D68007B1CAA71EB7128465A464146FDF702FDB5
:103D780019F0010FE0D0BAF1000FDDD001370C23A4
:103D88008AF807705A4641468AF806305046FDF7C9
:103D9800F1FCD1E7337FB27E8DF804209B09002126
:103DA800012201A88DF805308DF806108DF807203E
:103DB80024F0CEFC204603B0BDE8F08FCDB288E7F2
:103DC800C8B26FE72846FEF7CBF8B5E7C430002045
:103DD80024F702081C0C0020490E00080348D0F8FC
:103DE8003C3113B100F59A70184770471C0C00203D
:103DF8000348D0F8203113B100F58C70184770478C
:103E08001C0C00200348D0F804310BB1FC301847D3
:103E1800704700BF1C0C00200348D0F8E8300BB1F5
:103E2800E0301847704700BF1C0C00200348D0F84A
:103E3800CC300BB1C4301847704700BF1C0C0020B1
:103E48000348D0F8B0300BB1A8301847704700BF0E
:103E58001C0C00200348D0F894300BB18C30184764
:103E6800704700BF1C0C00200248836F0BB17030F4
:103E7800184770471C0C00200248C36D0BB1543022
:103E8800184770471C0C00200248036C0BB13830EF
:103E9800184770471C0C00200248436A0BB11C30BD
:103EA800184770471C0C00200248836803B1184764
:103EB800704700BF1C0C0020F0B53E4C059D00EB80
:103EC800800004EB80046468002C71D03A4E4900ED
:103ED8004FF42040CFB23065A169090454D460681A
:103EE800DFF8E0E047F4903100EA0E0001434FF4B8
:103EF80020406160306503E0411E002848D0084634
:103F0800A1698907F8D54FF42040A262306503E023
:103F1800421E00283CD01046A2695206F8D5274A0E
:103F28006168DFF8A0E0306542EA0342174301EA1E
:103F38000E0217436760C3B1013BDBB201332B4468
:103F4800A0694FF4204210F0040002F1FF3207D1BB
:103F5800511C26D0A06910F0040002F1FF32F7D0FE
:103F6800626A05F8012B9D42EAD14FF42040306582
:103F780002E0431E60B11846A3699B06F9D52023C9
:103F88003065E3610120F0BD411E08B10846A3E792
:103F98000B4A138801339BB24FF0FF311380316510
:103FA800F0BD074932650B8801339BB20B80F0BD29
:103FB8002046F0BDE43000207C23002000240002CD
:103FC80098410020009800FC70B590F904506C1CD2
:103FD80082B00AD0022D08DC16460A4641790096BE
:103FE8002846FFF769FF02B070BD002002B070BD1F
:103FF80070B50378012B82B004D106236A46F721F5
:10400800FFF7E2FF9DF801209DF804309DF800605D
:104018009DF803509DF802409DF8050007491201DC
:104028001B0142EA063243EA053342EA141243EA24
:104038001013CA648B6402B070BD00BF7C230020DB
:1040480000B583B0002000920A466821FFF734FFCC
:1040580003B05DF804FB421C76D0022874DC2DE91D
:10406800F843142303FB00F33C4FFA583B44002A5F
:104078006BD01C1D94E810030546907B20F014FBC0
:10408800374B9C4263D0374A136B23F010031363FA
:104098001023344A116B6E1C0B431363F6B2B8F14C
:1040A800000F04D0152388F8076088F80630142319
:1040B80003FB057340465B7C002B14BF3E211E2189
:1040C8000422FDF757FBB9F1000F04D0162389F835
:1040D800076089F80630142000FB057504226B7C04
:1040E800002B14BF3E211E214846FDF743FB2168E3
:1040F8002D7C1D4B1D481E4A21F0010121602168BD
:10410800002D08BF03460A4022602361226800236D
:1041180042F001022260A360E360A360A36843F455
:104128000043A36023682360636823F0784323F483
:1041380000436360236823F400332360236843F05B
:1041480001032360BDE8F8837047BDE8F88305499B
:10415800084B0A6B22F020020A639AE7E430002039
:104168000058004000100240300E50007A25E00050
:10417800FFE0CF00200000101749184B184A1948D3
:1041880010B4D1F8884044F47004C1F888401C6821
:1041980044F001041C605C6822405A601A6822F0EE
:1041A800847222F480321A601A6822F480221A601B
:1041B8005A6822F4FE025A60DA6A22F00F02DA62C2
:1041C8001A6B002410404FF0006218639C608A60EC
:1041D8005DF8044B704700BF00ED00E0001002409E
:1041E8000CC07FF8CCFC00FF38B50B4C23688BB1B2
:1041F8005A68821A002A054604DA0CE05A68AA1A94
:10420800002A07DB9A68226018461A6890472368D4
:10421800002BF3D138BD38BD905D00200D4B012136
:104228000022890710B4027203F1640402D51979D7
:10423800815401329C4203F1140308D0072A06DC9A
:1042480099798907F3D49C4203F11403F6D15DF8F8
:10425800044B7047CC1C030824230370704700BF2D
:104268000122102302704370704700BF436A8269BD
:10427800D154436A0169426B01338B4228BF002342
:104288004362002A2FD0EFF31181502383F3128861
:10429800436B1A68D2072CD470B45E686EB9456A4D
:1042A800826A954217D084691444DC600ED9AA1A30
:1042B8005A608562002280F850201A6842F0010294
:1042C800C9B21A6081F3118870BC70470469A21AD8
:1042D8005A608662EEE7012380F85030C9B281F354
:1042E800118870BC7047C26C136843F08003136078
:1042F8007047C9B281F31188704700BF026B10B4D0
:1043080062B1036CC2684469D11A013B615C5DF813
:10431800044B08BF13460364C8B27047016A436977
:10432800C4685B5C0131A14228BF114601625DF897
:10433800044BD8B2704700BF436B13B190F85000DC
:104348007047836A406A181AB0FA80F040097047CB
:10435800416A836A99420AD3CB1A416B026961B1F7
:104368004968501E0B4483420AD2C01A704702693A
:104378001144CB1A416B0029F2D1501EC01A704764
:1043880000207047036B43B1026C5B6893422FBFF8
:10439800981AC0689B1AC0187047C269036A9A4283
:1043A8002FBFD01AC0688018C01A704708B514F01B
:1043B8002FFB024B024ADA60FEE700BF00ED00E087
:1043C8000400FA052DE9F0470569C3681D4028D0A7
:1043D8000F4606464FF000484FF00009B5FA85F33E
:1043E80028FA03F2D2431B3B32611540042B16D83E
:1043F800DFE803F03129211903007B6A002B32D052
:1044080003F1FF3A1FFA8AFAC7F824903C6A34B1DC
:1044180023682046514698476468002CF8D1002D3F
:10442800DCD1BDE8F0873868716B036889B29847BA
:10443800002DD3D1F5E77868B16B036889B2984746
:10444800002DCBD1EDE7B868F16B036889B29847C6
:10445800002DC3D1E5E7F868316C036889B2984745
:10446800002DBBD1DDE7F36A1FFA83FACEE700BF60
:104478002DE9F04F2DED028BA0F10A0389B00C460F
:10448800E72B00F24D86DFE813F01C014B064B06C4
:104498004B064B064B064B064B064B064B064B068C
:1044A8004B064B064B064B064B064B064B064B067C
:1044B8004B064B064B064B064B0663054B064B0655
:1044C8004B0627054B064B064B0644064B06B00524
:1044D8004B0697054B068B054B0682054B061E06B9
:1044E8004B0604064B064B064B06FD05F5054B0629
:1044F80034034B064B062D034B0605034B064B06B0
:104508004B06F2024B064B064B064B06D3024B06F4
:10451800FC004B062D0465014B064B064B064B066B
:104528004B064B064B062D014B06FF034B06CB03F0
:104538004B0655034B0641034B064B064B064B06F1
:104548000405C904C2049104E8004B064B0657024F
:104558002D024B06F601DA014B064B064B064B06BD
:10456800CF014B064B06AE014B064B064B069F018F
:104578008801BF027D024B064B064B066E024B06B6
:104588004B0671044B064B064B064B064B064B0677
:104598004B064B064B064B064B064B064B064B068B
:1045A8004B0604054B064B064B064B064B064B06C3
:1045B8004B064B064B064B064B064B064B064B066B
:1045C8004B064B064B064B064B064B064B064B065B
:1045D8004B064B064B064B064B064B064B064B064B
:1045E8004B064B064B064B064B064B064B064B063B
:1045F8004B064B064B064B064B064B064B064B062B
:104608004B064B064B064B064B064B064B064B061A
:104618004B064B064B064B064B064B064B064B060A
:104628004B064B064B064B064B064B064B064B06FA
:104638004B064B064B064B064B064B064B064B06EA
:104648004B064B064B064B064B064B064B064B06DA
:104658004B064B064B0666043C04A84E337853B110
:10466800A74F002537F8021F2046FEF758FD33787C
:104678000135AB42F6DC012009B0BDEC028BBDE888
:10468800F08F9E4E3378002BF5D09E4F0025B8460C
:10469800236817F81520591C21601A7098F8011022
:1046A80001EB810101EB810101F2EE2189B2204683
:1046B800FEF735FD33780135AB4208F10208E7DC37
:1046C800D9E7914D284627F08BFC0028D3DD2B46EF
:1046D8000544226813F8011B501C9D42206011708C
:1046E800F7D1C8E70FF0FCFEFF28054600F0048666
:1046F80008A9002601F8116D0DF10E008DF80E6065
:104708000FF0CEFE08A800F8106D0FF0BDFE08A847
:1047180000F8086D0FF0ACFE23685A1C22601D706B
:1047280023689DF80E20591C21601A7023689DF893
:104738000F20591C21601A7023689DF81020591CFD
:1047480021601A7023689DF81820591C21600120E7
:104758001A7091E70B686D4E01255A1C0A601D708E
:104768000B68B278591921601A7015F047FF236851
:10477800674A68495F1927601870B1F90010B2F9E3
:104788000000FEF755FE23685A1922601870318818
:104798002046FEF7C4FC28466EE70A685E4B5F4970
:1047A8001878551C2560107022685878551C2560AB
:1047B800107022689B78501C206013702046C988AE
:1047C800FEF7ADFC012057E7544D08462988FEF74F
:1047D800A6FC69882046FEF7A2FC2046A988FEF7B9
:1047E8009EFC012048E74E4D05F16006A988204649
:1047F800FEF795FCE9882046FEF791FC29892046BA
:10480800FEF78DFC2368AA7A591C21601A70236868
:10481800EA7A591C21601A7055F80C1B2046FEF7DD
:1048280067FCAE42E2D126E73E4952232268501C7B
:104838002060137011F8013F002BF7D11BE73A48AD
:1048480000232268056803EB4301561C6D5C266053
:104858001570026825680A446E1C527826602A7012
:10486800026825680A4401339278691C0A2B216082
:104878002A70E6D1FFE62D4D0B682A68591C12787C
:1048880021601A702B6822689978531C23600023D2
:1048980011702A6821681A4401335279481C032B85
:1048A80020600A70F5D123682A68591C127A2160A1
:1048B8001A7023682A68591CD27821601A702368F4
:1048C8002A68591C127921601A702B682046598968
:1048D800FEF725FC2A682368527A591C21601A7051
:1048E8002A680CE1124B08461968FEF701FC114BC7
:1048F80020461988FEF713FC0120BDE68C370020FE
:10490800CE5400201066002038600020B0460020F9
:104918008C4900208E490020104B002020450020A3
:10492800C84100204CF7020850600020E85E0020D3
:10493800BC46002060600020A84D08462988FEF784
:10494800EEFB69882046FEF7EAFBB5F90430A44A75
:10495800D91782FB0323C1EBA301204689B2FEF7D6
:10496800DEFB012088E69F4D0846298AFEF7D7FB23
:10497800698A2046FEF7D3FB2046A98AFEF7CFFBBB
:10498800012079E6DFF894E20027FEB271460023A1
:104998002268501C206016702268501C206013701A
:1049A800226811F8010F0133551C062B2560107081
:1049B800EED10137062F0EF1060EE6D18A49002303
:1049C8002268501C206017702268501C20601370E9
:1049D800226811F8010F0133551C0B2B256010704C
:1049E800EED12368814A581C07212060197023687A
:1049F8000021581C20601970236892F8F020591C77
:104A0800216001201A7037E60B68794A79491078D5
:104A1800794A5D1C2560187023688978581C2060C5
:104A2800197023689278591C216001201A7023E6B6
:104A38000B68724D591C2A7921601A7023686A79AB
:104A4800591C21601A7029882046FEF768FB2368E4
:104A5800AA79591C21601A7069882046FEF75FFB05
:104A68002368EA79591C216001201A7004E60B6852
:104A780000255A1C0A60204629461D70FEF738FB9F
:104A880029462046FEF734FB20462946FEF730FB30
:104A98000120F1E50B685A4A5A4D11785A4A581CB8
:104AA8002060197011682046FEF722FB2368574AD8
:104AB800591C127A21601A7029882046FEF72FFBAC
:104AC800A9882046FEF72BFB29892046FEF727FBFD
:104AD80000212046FEF723FB20460021FEF71FFB9E
:104AE8000120C9E5084608224849FEF7EAFA0120EC
:104AF800C2E50B68464A581C9178206019702368F3
:104B08005278591C216001201A70B5E50B68394AA2
:104B18004049D078384A5D1C256018702368497967
:104B2800581C206019702368D278591C2160012014
:104B38001A70A1E500212046FEF7F1FA002120466F
:104B4800FEF7EDFA00212046FEF7E9FA2368324D18
:104B580000265A1C22601E7023682A68591C92F885
:104B68002C2021601A7023682A68591C92F8362074
:104B780021601A7023682A68591C92F8372021602E
:104B88001A7023685A1C22601E7023685A1C2260FF
:104B98001E7023685A1C22601E702B682046598F8D
:104BA800FEF7BDFA2B682046198FFEF7B8FA23687E
:104BB8002A68591C92F82E2021601A7023685A1C02
:104BC80022601E702B682046598EFEF7A8FA2B68C3
:104BD8002046998EFEF7A3FA01204DE530600020AB
:104BE80067666666304C002013600020305F002046
:104BF800C8680020184B0020284B0020A441002042
:104C0800544B002014310020443400207C4F0020F5
:104C1800344B0020C848002050600020EF5F00207F
:104C2800B54E0B687279B54D591C21601A702B6806
:104C38002046198CFEF773FA2B682046D98BFEF7AD
:104C48006EFA71892046FEF76AFAB1892046FEF7A6
:104C580066FA2B682046598CFEF761FA2B682046C5
:104C6800998CFEF75CFAF1892046FEF758FA318AEA
:104C78002046FEF754FA2A68236892F82620591C21
:104C8800216001201A70F7E49B4EF378002B00F0A6
:104C980025830B680822591C21601A702368012299
:104CA800991821601A702368954D591C2A7921603A
:104CB8001A702368AA78591C21601A70298820461E
:104CC800FEF72DFAE9892046FEF729FA2368F279DA
:104CD800591C21601A702368EA78591C2160012048
:104CE8001A70C9E40B6800255A1C0A601D700B680D
:104CF8005A1C0A601D700B685A1C0A6029461D70F0
:104D0800BFE6804B03F1700522681978501C2060BB
:104D1800117022685978501C2060117022689978A7
:104D2800501C206011702268D978501C20601170C6
:104D380022681979501C2060117022685979501C1A
:104D480020601170226899790733501C9D422060B9
:104D58001170D9D18FE46C4D0846E989FEF7DFF967
:104D68002046A989FEF7DBF9012085E40B68674F27
:104D7800591C3A7821601A703B78002B3FF47BACC1
:104D88000025EEB2304619F051FC23684278591CD0
:104D9800216030461A7019F049FC01892046FEF757
:104DA800BEF93B780135AB42EBDC64E4584D594E13
:104DB8009FED598ADFF88C81DFED588A05F12007CD
:104DC8000EE0FCEEE77ACDED017ABDF8041020463E
:104DD8000435FEF7A4F9AF4206F118063FF44BACD0
:104DE800717C0029F3D04E4BD5ED007A1B78012B4E
:104DF800E7D14C4B1B68DB0440F16882F5EE407A42
:104E0800F1EE10FA40F0918240F2DC51DFE70846FB
:104E180010224549FEF755F901202DE4434B9B8AA2
:104E2800B3F5006F00F26682B3F5806F00F27B8203
:104E3800B3F5007F34BF012702273D4D05F10C066D
:104E480055F8041B91FBF7F1204689B2FEF767F984
:104E5800AE42F5D1374D384F05F10C06B5EC010AD5
:104E6800D7ED087A80EE270A28F0BAFA81B22046F0
:104E7800FEF755F9AE42F1D1304D05F10C0655F863
:104E8800041B204689B2FEF74AF9AE42F7D1FFF774
:104E9800F2BB00258146DFF8B080DFF8B0B0059599
:104EA80004950695079501214FF6FF7A05E001352F
:104EB8000B2D00F0388118F9011F4F1C4AFA05F331
:104EC800F5D0DE07F3D5BBF800302B41D807EED577
:104ED80006A8FEF709FBEAE7194D08462988FEF7F8
:104EE8001EF9A9882046FEF71AF920462989FEF7F7
:104EF80016F90120FFF7C0BBC868002050600020E9
:104F0800304C0020BC420020184B00204C5400209C
:104F18005C490020B06C00200000404200E0824460
:104F2800544C0020706B00204C490020683F002042
:104F3800A03F0020646B0020DC680020B441002002
:104F480014310020DB9B91417CF702082C60002083
:104F5800944D05F15006287823F0E8F82368027A82
:104F6800591C21601A7023686A78591C21601A70CC
:104F78002368AA78591C21601A702368EA780435D6
:104F8800591CB54221601A70E5D1FFF774BB0B6854
:104F9800854A591C527D216001201A70FFF76CBBAD
:104FA800824D05F1800655F8041F2046FEF7A0F84B
:104FB800AE42F8D1FFF75FBB7D4D05F14006B5F86D
:104FC80080102046FEF7ABF8236895F88220591C1C
:104FD80021601A70236895F883200435591CB5425E
:104FE80021601A70EBD1FFF746BB6F4D0B682A7A28
:104FF800591C21601A70A98B2046FEF790F8298B5E
:105008002046FEF78CF8698B2046FEF788F823685F
:10501800EA7C591C21601A70A98C2046FEF77FF89B
:10502800E98C2046FEF77BF82368AA7F591C21608B
:105038001A70236895F82020591C21601A70698C11
:105048002046FEF76CF82368EA7A591C21601A702A
:10505800E9682046FEF74CF823682A7C591C216031
:105068001A70236895F82120591C216001201A70B4
:10507800FFF702BB0B6801229918216010461A70CD
:10508800FFF7FABA08460021FEF732F80120FFF7C9
:10509800F3BA484D484E05F1180795F9023096F9CC
:1050A80006209A4200F0F08096F90E209A4200F00D
:1050B800EB8096F916209A4200F0E6800835BD424A
:1050C800EBD1FFF7D8BA3D4B03F15A05226859795D
:1050D800501C2060117022681978501C20601170D3
:1050E80022685978501C2060117022689978501CE9
:1050F800206011702268D978501C206011702268D5
:1051080019790633501C9D4220601170DED1FFF7DB
:10511800B2BA0B682A4A581C117820601970EEE45C
:105128000020FFF7A9BADFF8A4A000254FF008086F
:105138000135C5F1200208FA02F2A5F120032AFA86
:1051480005F6164328FA03F31E43252D06F001023F
:105158004FF000030BD01343EAD0E8B21DF0FAFB7E
:105168000028E5D0294606A8FEF7BEF9E0E7154B6A
:105178001B78DA0700F1C7800025134E2F4602E09E
:105188000135252D24D029463046FEF7BCF90028E4
:10519800F6D0294606A8FEF7B6F9002840F0918017
:1051A8000137EDE7584B00207C4F00202C5F002092
:1051B800305F0020DC670020604F00207140002035
:1051C800544B0020F2660020AC66002090E33FF4C8
:1051D800744B754DB3F850102046FDF7A0FF734B84
:1051E8001988204689B2FDF79AFF714B19684B015F
:1051F80003F02002C1F340031343C1F3800243EAE2
:105208004203C1F3C00243EA8203C1F3401243EAF6
:10521800C20301F0100119432046FDF780FF04A9DD
:1052280004222046FDF74DFF23682978614A581C5F
:105238002060197011886429A8BF64212046FDF7F1
:105248006EFFB9F1960F63D000212046FDF767FF86
:105258002168B7F1190348BFA7F11203A3F3C403E8
:105268004A1C226020461A460B7005A9FDF729FF43
:105278002368514A581C1021206019702046118853
:10528800FDF736FFFFF7F7B92268511C216013704C
:1052980029882046FDF743FF2368EA78591C2160D6
:1052A8001A7023682A79591C21601A702368AA7910
:1052B800591C21601A7023686A79591C21601A7078
:1052C800FCE6394604A8FEF70FF969E7F4EEC87A58
:1052D800F1EE10FA45DA4FF47A7178E50B68B17897
:1052E800364A581C2060197023681278591C2160AE
:1052F8001A70D8E40827A0E523685A1C2260012008
:105308001D70FFF7B9B9069B43F00103069333E715
:1053180023680322591C21601A7023686A78591C73
:1053280021601A7094E7042787E5F4EEC87AF1EE55
:1053380010FA3FF569ADF4EEE87AFDEEE77AF1EEA2
:1053480010FA17EE901A1ED86FF4F973303903FB70
:1053580001F140F2E73391FBF3F101F2DB5189B23D
:1053680035E5FDEEE77A40F2E73217EE903A303B4A
:1053780002FB03F388FB0312D917C1EB622101F288
:10538800E93189B223E540F2F313A1F5836103FB08
:1053980001F140F2E73391FBF3F101F2DD5189B2FB
:1053A80015E500BF30070020546000209841002018
:1053B800D84600209C410020DE4600200C4B0020EF
:1053C80008B501210220FCF7DFFD094B1B7803F02B
:1053D8000503052B08D000210120FCF7D5FD00218D
:1053E8000846FCF7D1FDFEE713F0A4FBF3E700BF86
:1053F800642E0020022810B428BF0220064C074B58
:10540800207000EB8001064A5DF8044BC0EBC10038
:1054180003EB4000106070475460002016330020F2
:105428005060002008B521F0A1FBFDF733FCBDE872
:10543800084021F083BB00BF2DE9F04F013085B053
:10544800C3B203938E4D8F4F8F4C904E0A23029315
:105458003220DFF840921FF029FD4FF4FA7A4FF01E
:10546800100C4FF47A70D9F80430C3F30803002BFA
:1054780040F0C880EFF31183002B40F0C380296807
:10548800A26800BF2B689942F9D1D7F800E000FB69
:105498000EF39B1AB3FBFEF300FB01314FF0010E34
:1054A8000191D9F80430C3F30803002B40F08E8033
:1054B800EFF31183002B40F089802B68A16800BFAF
:1054C8002A689342F9D1D7F800B000FB0BF2521AC0
:1054D800B2FBFBF200FB0323019A9B1AB3F57A7F18
:1054E800DFD3BAF1010ABED1039B002B40F0C48080
:1054F8004FF47A7ADFF89C9150464FF0100CD9F8A7
:105508000430C3F30803002B40F09980EFF31183B4
:10551800002B40F094802968A26800BF2B6899424C
:10552800F9D1D7F800E000FB0EF39B1AB3FBFEF3AA
:1055380000FB01314FF0010E0191D9F80430C3F39B
:1055480008033BBBEFF3118323BB2B68A16800BFA3
:105558002A689342F9D1D7F800B000FB0BF2521A2F
:10556800B2FBFBF200FB0323019A9B1AB3F57A7F87
:10557800E3D3BAF1010AC2D1029B013B02937FF443
:1055880067AF4349434B4448444A0860DA6005B072
:10559800BDE8F08FEFF311888CF31288A1682368B7
:1055A800DB0344BFC6F800E0A1682B6832685FFAE5
:1055B80088F888F31188D7F800801A4400FB08F3AC
:1055C8005B1AB3FBF8F300FB0233CDE7EFF3118866
:1055D8008CF31288A1682368DB0344BFC6F800E097
:1055E800A1682B6832685FFA88F888F31188D7F8C1
:1055F80000801A4400FB08F35B1AB3FBF8F300FBC6
:10560800023369E7EFF311828CF31288D4F808E0CB
:105618002368D90303D501233360D4F808E02B6845
:105628003168D2B282F311883A68194400FB02F358
:10563800A3EB0E03B3FBF2F300FB01312EE7EFF30C
:1056480011828CF31288D4F808E02368D90303D5B3
:1056580001233360D4F808E02B683168D2B282F3B2
:1056680011883A68194400FB02F3A3EB0E03B3FB5D
:10567800F2F300FB01315DE718461FF0BDFA37E78A
:105688007C6100208061002010E000E0786100204B
:10569800FC9F002000ED00E0EFBEADDE0400FA053F
:1056A80038B5434B5A899989914224BF00225A81BF
:1056B800198ADA89914224BF0022DA81DA788AB31A
:1056C800072A2FD03B493C4D91F85700012400216F
:1056D8000A282C709C70D9713DD00C2865D0DFED5C
:1056E800377A8ABB364C9FED370AA278002918BF53
:1056F800F0EE407A062A04D8334901EB820191ED95
:105708000F0A217959B3013A032A4DD8F7EE007AE6
:1057180087EE800A27F064FE2388984228BF18463F
:10572800208038BDD97921B198780428B8BF0420E1
:105738009870204890F857000A280CD00C28CED131
:10574800DFED227A002ACDD0072ACBD00A282CD127
:10575800DFED1F7AC6E70A20DFED1E7AC1E79B78E6
:10576800154A07EE103A1178B8EEC77A27EE277A6D
:1057780007EE901AF8EEE77A67EE877AB4EEE70A52
:10578800F1EE10FA10DDC0EE077AFDEEE77A17EEBB
:10579800903A102BA8BF1023012BB8BF0123DBB20E
:1057A8008B4238BF0B46137038BDDFED0B7A99E793
:1057B800C8680020DC6800200C4B00206F120339F9
:1057C800304C00206F1203384CF702080AD7A3396F
:1057D8000F506E3A5304E9386F12833A2DE9F047B7
:1057E800B34FB44E21F0C2F9BE421ED2DFF84C834B
:1057F800DFF84C934446258862197DB14A450DD29D
:10580800052D0BD933886188C3F30B03994200F047
:10581800ED80144625886219002DEFD17168304655
:105828001436FDF7C3F9BE42E4D3A34A1378A3F1B3
:10583800170102290FD9A14911F83300002840F0B7
:105848000181D8000144497829B19D4911F83330C4
:10585800002B00F025819B4B5A78022A40F2EC80FD
:10586800002299495A701A789848022A016000F271
:10587800DF8002EB8201964BC2EBC10203EB4203CD
:10588800998C5A8C934C9142236001D300225A84FC
:10589800914B9A78042A00F0FA8032B91A88B2F546
:1058A800F07F84BF4FF4F0721A808C4DFFF7F8FE3A
:1058B8002B688B4A1A40002A00F0F580DE0700F1B9
:1058C800E180580400F1D980190700F1D1809A01CC
:1058D80000F1C8809B0400F1BE8016F04BFC10B9A3
:1058E800804823F043FB4020FDF796F98020FDF720
:1058F80093F94FF40070FDF78FF94FF40010FDF79E
:105908008BF94FF08060FDF787F94FF00060FDF7E5
:1059180083F91DF097F800213022734829F021FE01
:10592800206812F055FD714B266803F1500102E022
:10593800043399427AD01A78002AF9D19C78D87819
:105948008442F5D26A496B4B91F804E06A486B4D82
:105958005C6B6B4B2860C827642111FB0E71DFF864
:10596800E4E15960674F30F8061C674DAEF8001047
:1059780000219960D960196159619961D96183F8E9
:10598800201083F821103A702E600CB11AF090FDA7
:105998005E4B9FED5F5A1B885E4A9FED5F6A5579A3
:1059A8005E4C5F495F48086006EE903AF8EEE66A9A
:1059B8001388C5EE265A07EE103A53881279C4EDBB
:1059C800005A07EE903AB8EEC77A574BF8EEE77AE6
:1059D8001D725A7227EE067A67EE867ABDE8F0479E
:1059E80083ED017AC3ED007A21F0A8B863799B07AB
:1059F8007FF40FAF716894F804A03046FDF7D6F82D
:105A08003388BAEB133F04D01436BE42FFF4F2AE2B
:105A18000BE773887068AA1FC3F30B039A4204F15B
:105A28000601A8BF1A4627F0D3FAEDE7012289E755
:105A380000221A70264B23E7234902EB420201EBAE
:105A4800820110E7D8000C186468002C7FF4FAAEC5
:105A580017241470F6E63548FDF7DEF84020FDF708
:105A6800DBF83AE746F20900FDF7D6F82B6831E78C
:105A78002F48FDF7D1F82B6829E72E48FDF7CCF819
:105A88002B6821E72C48FDF7C7F82B6819E79A8A95
:105A9800B2F57A7FBFF409AF4FF47A729A8204E7BD
:105AA80018231370D7E643F000732B6006E700BF96
:105AB800A8600308485C0308544B002050160308EC
:105AC8004814030854600020443F0020E85E00208A
